{
  "transactions": [
    {
      "hash": "0x1ef455ea599189a9f38cf03b23e5b18c33e37b4bb55167e2ceb00b1f58bafe42",
      "transactionType": "CALL",
      "contractName": null,
      "contractAddress": "0x85fd1982bcf773358c186f34edb1768854ed2029",
      "function": "submit(address,uint256,bytes)",
      "arguments": [
        "0x1234567890123456789012345678901234567890",
        "10000000000000000",
        "0x3078"
      ],
      "transaction": {
        "from": "0x7ef78e0ef51a18ce23269707ca3a256b69f884c1",
        "to": "0x85fd1982bcf773358c186f34edb1768854ed2029",
        "gas": "0x2a6b4",
        "value": "0x0",
        "input": "0x14de327f0000000000000000000000001234567890123456789012345678901234567890000000000000000000000000000000000000000000000000002386f26fc10000000000000000000000000000000000000000000000000000000000000000006000000000000000000000000000000000000000000000000000000000000000023078000000000000000000000000000000000000000000000000000000000000",
        "nonce": "0x1d",
        "chainId": "0xaa36a7"
      },
      "additionalContracts": [],
      "isFixedGasLimit": false
    }
  ],
  "receipts": [
    {
      "status": "0x1",
      "cumulativeGasUsed": "0x1b222f7",
      "logs": [
        {
          "address": "0x85fd1982bcf773358c186f34edb1768854ed2029",
          "topics": [
            "0x08324b3d745b914e3abd4ffbfead91e3b78391a98c173202129215ab933adfbe",
            "0x0000000000000000000000000000000000000000000000000000000000000000"
          ],
          "data": "0x",
          "blockHash": "0x32811ae6ebc229e58bffd9f22caac0997bc01f5702680a221d5dd843d2854761",
          "blockNumber": "0x8927a4",
          "transactionHash": "0x1ef455ea599189a9f38cf03b23e5b18c33e37b4bb55167e2ceb00b1f58bafe42",
          "transactionIndex": "0x393",
          "logIndex": "0x58",
          "removed": false
        }
      ],
      "logsBloom": "0x00000000000000000000000000000000000000000000000000000000000000000000000000000000000000000000000000100000000000000000000000000000000000000000000000000000000000000000001000000000000000000000000000000000020000000000000000000800000000000000000000000004000000000000000000000000000000000000000000000000000000000000000000000000000000040000000000000000000002000000000000000000000000000000000000000000000000000000000000000000000000000000000000000000000020000000000000000040000000000000000000000000000000000000000000000000",
      "type": "0x2",
      "transactionHash": "0x1ef455ea599189a9f38cf03b23e5b18c33e37b4bb55167e2ceb00b1f58bafe42",
      "transactionIndex": "0x393",
      "blockHash": "0x32811ae6ebc229e58bffd9f22caac0997bc01f5702680a221d5dd843d2854761",
      "blockNumber": "0x8927a4",
      "gasUsed": "0x1d013",
      "effectiveGasPrice": "0xc8fcc6",
      "from": "0x7ef78e0ef51a18ce23269707ca3a256b69f884c1",
      "to": "0x85fd1982bcf773358c186f34edb1768854ed2029",
      "contractAddress": null
    }
  ],
  "libraries": [],
  "pending": [],
  "returns": {},
  "timestamp": 1755248498,
  "chain": 11155111,
  "commit": "8e8337a"
}