{
  "transactions": [
    {
      "hash": "0x8c6e40aa9091da54a9a4a4f718285eb120072aec2c86d289dbf5b2f15bbbab79",
      "transactionType": "CALL",
      "contractName": null,
      "contractAddress": "0x85fd1982bcf773358c186f34edb1768854ed2029",
      "function": "approve(uint256)",
      "arguments": [
        "0"
      ],
      "transaction": {
        "from": "0xcd926c7cfc17adf27cf8de5ffe1079deb8eea908",
        "to": "0x85fd1982bcf773358c186f34edb1768854ed2029",
        "gas": "0x12ea8",
        "value": "0x0",
        "input": "0xb759f9540000000000000000000000000000000000000000000000000000000000000000",
        "nonce": "0x0",
        "chainId": "0xaa36a7"
      },
      "additionalContracts": [],
      "isFixedGasLimit": false
    }
  ],
  "receipts": [
    {
      "status": "0x1",
      "cumulativeGasUsed": "0x122ae04",
      "logs": [
        {
          "address": "0x85fd1982bcf773358c186f34edb1768854ed2029",
          "topics": [
            "0x90ec57f18fa7b15c6b8d5e4d1deb90796c74b2ff23d4d0cecad0cb42a96b3128",
            "0x000000000000000000000000cd926c7cfc17adf27cf8de5ffe1079deb8eea908",
            "0x0000000000000000000000000000000000000000000000000000000000000000"
          ],
          "data": "0x",
          "blockHash": "0x75f0ea070a0ffedfc10d2cb1db400507ac153a37858f9991ef2522804e9159b9",
          "blockNumber": "0x8927b7",
          "transactionHash": "0x8c6e40aa9091da54a9a4a4f718285eb120072aec2c86d289dbf5b2f15bbbab79",
          "transactionIndex": "0xd5",
          "logIndex": "0x13d",
          "removed": false
        }
      ],
      "logsBloom": "0x00000000000000000000000000000000000000000000000000000000000000000000000000000000000000000000000000100000000000000000000000000000000000000000000000000000000000000000000000000000000000000000000000000000020000000000000010000800000000000000000000000040000000000002000080000000000000000000000000000000000000000000000000000000000000040000000000000000000002100000000000000000000000000000000000000000000000000000000000000000000000000100000000000000000020000000000000000000000000000000000000000000000000000000000000000000",
      "type": "0x2",
      "transactionHash": "0x8c6e40aa9091da54a9a4a4f718285eb120072aec2c86d289dbf5b2f15bbbab79",
      "transactionIndex": "0xd5",
      "blockHash": "0x75f0ea070a0ffedfc10d2cb1db400507ac153a37858f9991ef2522804e9159b9",
      "blockNumber": "0x8927b7",
      "gasUsed": "0xcef2",
      "effectiveGasPrice": "0x5ce4a8",
      "from": "0xcd926c7cfc17adf27cf8de5ffe1079deb8eea908",
      "to": "0x85fd1982bcf773358c186f34edb1768854ed2029",
      "contractAddress": null
    }
  ],
  "libraries": [],
  "pending": [],
  "returns": {},
  "timestamp": 1755248737,
  "chain": 11155111,
  "commit": "8e8337a"
}