{
  "transactions": [
    {
      "hash": "0x72891e1d8586c91cc13c17f567d28a6395207aaed1ef8ab492f3d10dea3d98c3",
      "transactionType": "CALL",
      "contractName": null,
      "contractAddress": "0x85fd1982bcf773358c186f34edb1768854ed2029",
      "function": "approve(uint256)",
      "arguments": [
        "0"
      ],
      "transaction": {
        "from": "0x7ef78e0ef51a18ce23269707ca3a256b69f884c1",
        "to": "0x85fd1982bcf773358c186f34edb1768854ed2029",
        "gas": "0x12ea8",
        "value": "0x0",
        "input": "0xb759f9540000000000000000000000000000000000000000000000000000000000000000",
        "nonce": "0x1e",
        "chainId": "0xaa36a7"
      },
      "additionalContracts": [],
      "isFixedGasLimit": false
    }
  ],
  "receipts": [
    {
      "status": "0x1",
      "cumulativeGasUsed": "0xc4e6ef",
      "logs": [
        {
          "address": "0x85fd1982bcf773358c186f34edb1768854ed2029",
          "topics": [
            "0x90ec57f18fa7b15c6b8d5e4d1deb90796c74b2ff23d4d0cecad0cb42a96b3128",
            "0x0000000000000000000000007ef78e0ef51a18ce23269707ca3a256b69f884c1",
            "0x0000000000000000000000000000000000000000000000000000000000000000"
          ],
          "data": "0x",
          "blockHash": "0x9e2ff68c980717cc9f48f16c15b4cf652824c79ebe310fab286c90054eec6147",
          "blockNumber": "0x8927a9",
          "transactionHash": "0x72891e1d8586c91cc13c17f567d28a6395207aaed1ef8ab492f3d10dea3d98c3",
          "transactionIndex": "0x7a",
          "logIndex": "0xcc",
          "removed": false
        }
      ],
      "logsBloom": "0x00000000000000000000000000000000000000000000000000000000000000000000000000000000000000000000000100500000000000000000000000000000000000000000000000000000000000000000000000000000000000000000000000000000020000000000000010000800000000000000000000000040000000000000000000000000000000000000000000000000000000000000000000000000000000040000000000000000000002000000000000000000000000000000000000000000000000000000000000000000000000000100000000000000000020000000000000000000000000000000000000000000000000000000008000000000",
      "type": "0x2",
      "transactionHash": "0x72891e1d8586c91cc13c17f567d28a6395207aaed1ef8ab492f3d10dea3d98c3",
      "transactionIndex": "0x7a",
      "blockHash": "0x9e2ff68c980717cc9f48f16c15b4cf652824c79ebe310fab286c90054eec6147",
      "blockNumber": "0x8927a9",
      "gasUsed": "0xcef2",
      "effectiveGasPrice": "0x9b55ab",
      "from": "0x7ef78e0ef51a18ce23269707ca3a256b69f884c1",
      "to": "0x85fd1982bcf773358c186f34edb1768854ed2029",
      "contractAddress": null
    }
  ],
  "libraries": [],
  "pending": [],
  "returns": {},
  "timestamp": 1755248557,
  "chain": 11155111,
  "commit": "8e8337a"
}